:020000040800F2
:10000000080C0020C9010008CF1900086110000881
:10001000CD190008CF040008B3200008000000003C
:100020000000000000000000000000004D2000085B
:100030000D06000800000000391E00084F200008CF
:10004000E3010008E3010008E3010008E301000800
:10005000E3010008E3010008E3010008E3010008F0
:10006000E3010008E3010008E3010008E3010008E0
:10007000E3010008E3010008E3010008E3010008D0
:10008000E3010008E3010008E3010008E3010008C0
:10009000E3010008E3010008E3010008E3010008B0
:1000A000E3010008E3010008E3010008E3010008A0
:1000B000E3010008E3010008E3010008E301000890
:1000C000E3010008E3010008E3010008E301000880
:1000D000E3010008E3010008E3010008E301000870
:1000E000E3010008E3010008E301000800F002F862
:1000F00000F05AF80AA090E8000C82448344AAF168
:100100000107DA4501D100F04FF8AFF2090EBAE865
:100110000F0013F0010F18BFFB1A43F0010318473B
:10012000386C0000586C00000A444FF0000C10F8C6
:10013000013B13F0070408BF10F8014B1D1108BF65
:1001400010F8015B641E05D010F8016B641E01F805
:10015000016BF9D113F0080F1EBF10F8014BAD1C55
:100160000C1B09D16D1E58BF01F801CBFAD505E073
:1001700014F8016B01F8016B6D1EF9D59142D6D3CD
:10018000704700000023002400250026103A28BFF5
:1001900078C1FBD8520728BF30C148BF0B607047F9
:1001A0001FB51FBD10B510BD00F05CF91146FFF77B
:1001B000F7FF03F09FFA00F07AF903B4FFF7F2FFBC
:1001C00003BC00F07DF9000009488047094800475A
:1001D000FEE7FEE7FEE7FEE7FEE7FEE7FEE7FEE7F7
:1001E000FEE7FEE704480549054A064B7047000054
:1001F000B1200008ED00000808060020080C0020CF
:10020000080800200808002010B54C1084EA5304A8
:1002100004D54042C1F1000138BF491E1B4204D53C
:100220005242C3F1000338BF5B1E00F06FF814F0B8
:10023000804F04D04042C1F1000138BF491E14F084
:10024000004F04D05242C3F1000338BF5B1E10BD03
:1002500040EA010310B59B070FD1042A0DD310C843
:1002600008C9121F9C42F8D020BA19BA884201D995
:10027000012010BD4FF0FF3010BD1AB1D30703D0DD
:10028000521C07E0002010BD10F8013B11F8014B93
:100290001B1B07D110F8013B11F8014B1B1B01D1AF
:1002A000921EF1D1184610BD02F0FF0343EA03226B
:1002B00042EA024200F0AEB84FF0000200B5134629
:1002C00094469646203922BFA0E80C50A0E80C5076
:1002D000B1F12001BFF4F7AF090728BFA0E80C5027
:1002E00048BF0CC05DF804EB890028BF40F8042B20
:1002F00008BF704748BF20F8022B11F0804F18BF8D
:1003000000F8012B704770477047704753EA020CA2
:1003100000F069802DE9F04B4FF00006002B1FBF65
:10032000B3FA83F503FA05F424FA05F65E4012BF2A
:100330001643B2FA82F502FA05F4C5F120051EBF94
:1003400022FA05FC44EA0C04203556EA044C4FEA34
:10035000144418BF641C4FF000084FF0000990428D
:1003600071EB030C39D3002919BFB1FA81F701FAF7
:1003700007F6B0FA80F700FA07F6C7F120071EBFAC
:1003800020FA07FC46EA0C062037B6FBF4FCA7EB84
:100390000507103F07F01F0BCBF120060CFA0BFBF3
:1003A0002CFA06F644BFB3460026202FA4BF5E46B3
:1003B0004FF0000B5BEA060C08BF4FF0010B19EB86
:1003C0000B09ABFB027C48EB0608C01B06FB02CC0A
:1003D0000BFB03CC71EB0C01C1E70B460246414617
:1003E0004846BDE8F08B13B54FF000004FF0000118
:1003F000AFF30080BDE81C40704710B500F02AF84C
:10040000006810BD10B5044600F024F8046010BD6B
:100410004FF000020429C0F0128010F0030C3FF4EA
:100420004DAFCCF1040CBCF1020F18BF00F8012B4A
:10043000A8BF20F8022BA1EB0C01FFF73FBF5FEA3A
:10044000C17C24BF00F8012B00F8012B48BF00F845
:10045000012B704700487047A405002000487047F2
:10046000A40500207546FFF7F9FFAE460500694672
:10047000534620F00700854618B020B5FFF7B2FEBE
:10048000BDE820404FF000064FF000074FF0000895
:100490004FF0000B21F00701AC46ACE8C009ACE816
:1004A000C009ACE8C009ACE8C0098D46704710B57A
:1004B0000446AFF300802046BDE81040FFF77DBE44
:1004C00001491820ABBEFEE7260002007047FEE798
:1004D0002DE9F04107460E480A460C4E01681046C9
:1004E00004F072FE0A4D8035A96804F0DBFC014679
:1004F000084804F069FE04463146384604F064FEBC
:10050000214604F0CFFCA860BDE8F0810AD7A33CE7
:100510001400002048E17A3F2DE9F04107460E48DB
:100520000A460C4E0168104604F04EFE0A4D803516
:10053000E96804F0B7FC0146084804F045FE0446AB
:100540003146384604F040FE214604F0ABFCE8603A
:10055000BDE8F0810AD7A33C1400002048E17A3FAF
:1005600038B5002000906B4601227521682000F00C
:1005700079FD9DF8000068280CD0BFF34F8F20480C
:100580000168204A01F4E06111430160BFF34F8F1D
:1005900000BFFDE703F09CF900282FD1782003F07D
:1005A00023FE40BB782003F0C5F820BBC82003F031
:1005B000DBFD00BB02F0DCFAE8B91348044603F0A7
:1005C00075F80546E01C03F071F845EAC005A01D6A
:1005D00003F06CF845EA801080B202F079FC50B963
:1005E00040F2731002F09CF928B9C82002F0D8FB41
:1005F00008B903F088FE012003F0DCFC38BD0000E0
:100600000CED00E00400FA052C010020704700000A
:100610002DE9F04F8DB0044601F0E8FCDFF84CA264
:10062000012CCAF818007DD04321D02000F052FDE3
:10063000000204B24421D02000F04CFD204404F01C
:1006400097FD06464521D02000F044FD000204B28B
:100650004621D02000F03EFD204404F089FD804674
:100660004721D02000F036FD000204B24821D020FE
:1006700000F030FD204404F07BFD81463B21D0207A
:1006800000F028FD000204B23C21D02000F022FD41
:10069000204404F06DFD05463D21D02000F01AFDF8
:1006A000000204B23E21D02000F014FD204404F0EA
:1006B0005FFD04463F21D02000F00CFD000207B290
:1006C0004021D02000F006FD384404F051FD0AF12D
:1006D0000C0386F0004283E8040385F00042CAE977
:1006E0000024CAF8080004F0B1FB07468A462046F9
:1006F000009104F0ABFB834653463A46089101F063
:10070000EDFF00225A4B04F0C7F8DFF868A15A4BFE
:10071000524603F069FF03F085FE00993C460490C1
:100720000F4600E05DE0284604F090FB05462246B7
:100730003B46009101F0D2FF00224D4B04F0ACF893
:1007400052464D4B03F050FF03F06CFE05905A46A5
:100750002846089B009901F0C1FF0022444B04F099
:100760009BF85246444B03F03FFF03F05BFE82468A
:10077000304604F06BFB414D4FF0663422462B4669
:1007800003F032FF03F04EFE0746404604F05EFBE6
:1007900022462B4603F028FF03F044FE0646484657
:1007A00004F054FB22462B4603F01EFF03F03AFEF2
:1007B0002E4C05461C34207B022841D003280DD145
:1007C00039460498FFF784FE80F0004020603146EF
:1007D0000598FFF7A1FE80F0004060600DB0BDE815
:1007E000F08F01F02BFB2648284D01681F481C3074
:1007F0000160244909684160234909688160B5F9AD
:10080000000004F0B5FCCAF80C005446B5F902002B
:1008100004F0AEFC2061B5F9040004F0A9FC1C4D05
:100820006061B5F9000004F0A3FC2060B5F9020096
:1008300004F09EFC6060B5F9040004F099FC13E03C
:100840003946049800F01CFE80F0004020603146DC
:10085000059800F0C3FE80F00040606029465046D5
:1008600000F06AFF80F00040A060B7E73805002084
:1008700000806640F1D4C853FB21094066663040D1
:1008800018010020140100201C010020200100207C
:10089000260100202DE9F84FDFF8B8910024A9F1D6
:1008A000040B23460F2709F1040AABF1040EC9E03B
:1008B0000125A5402A40AA427DD1674ED1F804C047
:1008C000ACEB0608B44532D014DCBCF1030F3AD0CF
:1008D00009DCBCF1000F2AD0BCF1010F1CD0BCF127
:1008E000020F31D11DE0BCF1110F17D0BCF1120F76
:1008F0002AD119E0B8F5881F19D006DCB8F5803F79
:1009000015D0B8F5801F1FD111E0B8F5001F0ED02B
:10091000B8F5041F18D10AE0CB6815E0CB681B1DA1
:1009200012E0CB6808330FE0CB680C330CE08B6827
:100930002BB1012B4FF0080303D0456104E00423E1
:1009400002E0056100E00023FF2A01D8064601E02D
:1009500000F104064FEA840501D9A5F12005D6F877
:10096000008007FA05FC28EA0C0803FA05F548EAB6
:100970000508C6F800804D68ED0062D5374DAE69B8
:1009800046F00106AE61AD6924F0030605F00105ED
:100990000095334D06EB050CDCF80850A607360F22
:1009A00007FA06F825EA0805DFF8B880404503D1C4
:1009B0004FF0000817E044E0DFF8AC80404502D17A
:1009C0004FF001080FE0DFF8A480404502D14FF05E
:1009D000020808E0DFF89880404502D14FF0030894
:1009E00001E04FF0040808FA06F848EA0508CCF8D8
:1009F00008804D68D9F80060ED024D4601D51643D8
:100A000000E096432E604D68DAF80060AD0255466E
:100A100001D5164300E096432E604D68DBF8006078
:100A2000AD035D4601D5164300E096432E604D6848
:100A3000DEF80060ED03754601D5164300E09643ED
:100A40002E60641C0D682A46E5407FF431AFBDE896
:100A5000F88F00000804014000001110001002404F
:100A60000000014000080140000C0140001001405E
:100A7000001401400AB1016170470904FBE700005E
:100A8000014880687047000000000020024881682B
:100A9000027811448160704700000020074810B5BB
:100AA000016841F010010160032000F067F80F2099
:100AB00000F006F800F024F8002010BD00200240ED
:100AC00070B50D4D04464FF47A712878B1FBF0F003
:100AD0000A490968B1FBF0F000F0AEFA48B9102CF1
:100AE00007D200222146501E00F028F800206C603A
:100AF00070BD012070BD0000000000200C0000202F
:100B00000C4808B5816941F001018161816901F0FA
:100B100001010091C16941F08051C161C06900F0DB
:100B2000805000900448416821F0E06141F000717C
:100B3000416008BD0010024000000140F0B40E4BBF
:100B40001B680C46C3F30223C3F10705042D00D92B
:100B50000425191D072901D2002300E0DB1E012610
:100B600006FA05F1491E214099409E40761E164026
:100B70003143F0BC01F0B2BA0CED00E0064900F0E0
:100B8000070208684FF6FF03184040EA0220034AB4
:100B900010430860704700000CED00E00000FA050B
:100BA0002DE9F0470F46050061D0434E306800F054
:100BB0000700B84209D2306820F00700384330609F
:100BC000306800F00700B84251D128683B4C8107DB
:100BD00012D5400703D5606840F4E0606060287873
:100BE000000703D5606840F4605060606068A968E1
:100BF00020F0F000084360602878C00728D06868BB
:100C0000012810D02168022810D0890700292EDA87
:100C1000616821F0030101436160FFF731FF804605
:100C200041F288390DE021688903EFE78901EDE79A
:100C3000FFF726FFA0EB0801494502D90320BDE8D4
:100C4000F0876068696800F00C00B0EB810FEFD1AD
:100C5000306800F00700B8420BD9306820F0070078
:100C600038433060306800F00700B84201D00120FE
:100C7000E5E72878400705D56068E96820F4E0607A
:100C8000084360602878000706D56068296920F469
:100C9000605040EAC100606000F018F86168084ADE
:100CA000C1F30311515CC84006490860064800685A
:100CB000FFF706FF0020C2E70020024000100240BC
:100CC000AC5500080C000020040000200E4A5168BA
:100CD0000E4801F00C03042B11D0082B0FD10C4847
:100CE000C1F38343C903C05C0AD55168084AC1F304
:100CF0004041921E515C054A5043B0FBF1F07047F1
:100D000004494843704700000010024000127A0076
:100D10009C55000800093D002DE9F84F040070D0F3
:100D20002078C04DC00749D06868C0F38100012811
:100D300007D06868C0F38100022809D16868C00341
:100D400006D52868800339D560680028E7D035E0EB
:100D50006068B0F5803F0BD010B1B0F5A02F11D076
:100D6000286820F480302860286820F4802002E081
:100D7000286840F480302860606890B1FFF780FEFA
:100D800006460AE0286840F480202860F0E700BFAB
:100D9000FFF776FE801B642873D828688003F7D598
:100DA0000CE0FFF76DFE064605E000BFFFF768FEAA
:100DB000801B6428F0D828688003F7D420789A4EE6
:100DC00080074FF001094FF0000839D5686810F02E
:100DD0000C0F07D06868C0F38100022809D1686849
:100DE000C00306D42868800714D52069012808D1DB
:100DF00010E02069B0B1C6F80090FFF741FE074649
:100E000005E00AE1FFF73CFEC01B0228C4D82868B1
:100E10008007F7D52868616920F0F80040EAC10032
:100E200028600DE0C6F80080FFF72AFE074604E0C0
:100E3000FFF726FEC01B022823D828688007F7D4B6
:100E4000207800072CD57948A169D9B1C0F8009065
:100E5000FFF716FE074604E0FFF712FEC01B02284C
:100E60000FD8686A8007F7D571484FF4FA510068C7
:100E7000B0FBF1F0009000BF0098411E0091FAD243
:100E80000EE080E0C0F80080FFF7FAFD074604E0BE
:100E9000FFF7F6FDC01B022875D8686A8007F7D4F3
:100EA0002078400760D5E8690027C00008D4E869C9
:100EB00040F08050E861E869012700F08050009020
:100EC0005C480168C90513D40168834641F4807108
:100ED0000160FFF7D5FD824606E000BFFFF7D0FDB9
:100EE000A0EB0A0064284ED8DBF80000C005F5D559
:100EF000E06801280AD008B1052813D0286A20F03C
:100F000001002862286A20F0040002E0286A40F00C
:100F100001002862E06841F2883B98B1FFF7B0FD1C
:100F200082460BE0286A40F004002862EEE700BF2A
:100F3000FFF7A6FDA0EB0A0159455AD8286A800799
:100F4000F6D50CE0FFF79CFD824605E0FFF798FD23
:100F5000A0EB0A0159454CD8286A8007F6D41FB186
:100F6000E86920F08050E861E06988B36968C1F3FE
:100F70008101022944D00228C6F8608004D0FFF71E
:100F80007FFD044638E034E0FFF77AFD074604E0D1
:100F9000FFF776FDC01B02282BD828688001F7D404
:100FA000206AB0F5803F05D16868A16820F4003060
:100FB00008436860D4E908010843696821F47411A2
:100FC00008436860C6F86090FFF75AFD044606E0E3
:100FD00025E000BFFFF754FD001B022809D8286850
:100FE0008001F7D51BE000BFFFF74AFD001B022878
:100FF00002D90320BDE8F88F28688001F4D40EE000
:101000000128F7D06868226A00F48031914204D147
:10101000616A00F47010884201D00120EAE70020E4
:10102000E8E7000000100240000042428004424213
:101030000C0000200070004010B5401EB0F1807F11
:1010400001D3012010BD4FF0E02460610F21601733
:1010500001F044F80020A06107202061002010BDAD
:10106000FEE700002DE9F0411D4614460F460646F6
:1010700000F020F9B0B17006000E00F0EBF800F0BF
:1010800061F990B1384600F0E5F800F05BF900F046
:1010900011F9012000EB4600C0B200F0DBF800F0CF
:1010A00051F90FE00120BDE8F08100F02BF9F9E7DC
:1010B000012C0DD05FF0010000F096F8641E05F8D9
:1010C000010BE4B2002CF3D100F01CF90020EAE798
:1010D0000020F1E770B50D46044600F0EBF820461D
:1010E00000F0B8F800F02EF9284600F0B3F800F050
:1010F00029F900F0DFF8641CE0B200F0ABF800F072
:1011000021F9002000F070F8044600F0FBF82046BA
:1011100070BD2DE9F0411E4615460F46044600F00D
:10112000C9F868B16006000E00F094F800F00AF902
:1011300048B1384600F08EF800F004F900240CE0C5
:101140000120BDE8F08100F0DDF8F9E7305D00F046
:1011500081F800F0F7F810B1641CAC42F6DB00F047
:10116000D1F80020EDE7000070B50D4C0025C4F863
:10117000A0510C48016821F0F0010160016841F0C4
:1011800030010160C4F8A451012004F5D07401F0CD
:101190008FFB0120206001F08BFB256070BD0000FB
:1011A00000802142040C014070B50D4C0025C4F8AC
:1011B000A0510C48016821F0F0010160016841F084
:1011C000300101600126C4F8A461304604F5D074F2
:1011D00001F06EFB2660012001F06AFB256070BD06
:1011E00000802142040C01402DE9F0478146174858
:1011F0000024016821F0F0010160016841F08001E4
:101200000160134E254627464FF00108C6F8A0712D
:10121000022001F04DFBC6F8A0816006040ED6F84E
:10122000240108B1641CE4B2022001F041FB6D1CF2
:10123000EDB2082DEAD3B9F1000F02D0FFF794FF09
:1012400001E0FFF7B1FF2046BDE8F087040C014044
:10125000008021422DE9F04106461448016821F042
:10126000F0010160016841F030010160104C00277D
:10127000C4F8A0713D464FF00108F009C4F8A4017C
:101280007006060E012001F013FBC4F8A0810120B6
:1012900001F00EFBC4F8A071012001F009FB6D1CE8
:1012A000EDB2082DE9D3BDE8F0810000040C014047
:1012B0000080214270B51148016821F0F001016001
:1012C000016841F0300101600D4C0120C4F8A40117
:1012D000D4F8241149B1C4F8A00101F0E9FA0025BD
:1012E000C4F8A451D4F8240108B1002070BD012035
:1012F00001F0DEFAC4F8A051012070BD040C0140D9
:10130000008021420D4810B5016821F0F001016014
:10131000016841F030010160094C0020C4F8A001CF
:10132000C4F8A401012004F5D07401F0C1FA012031
:1013300020606060BDE8104001F0BABA040C0140C2
:101340000080214270B513480024016821F0F001AB
:101350000160016841F0800101600F4D0126C5F870
:10136000A461304601F0A4FAC5F8A06107E0641C4E
:10137000E4B2322C03D9FFF7C5FF002070BD012075
:1013800001F096FAD5F824010028F0D1C5F8A001A3
:10139000012070BD040C014000802142F8B51546C3
:1013A0001C460E4607466A4600F063F801209DF889
:1013B0000010A8400CB1084301E021EA0000C2B2CD
:1013C0008DF800203146384600F02BF8F8BD2DE9A5
:1013D000F84314461D460F4680466A46089E00F0B4
:1013E00048F800281BD0611CFF20C4F1080200FA55
:1013F00001F12A44521ED0400143C5F10800864045
:10140000F2B2C4F10700C2409DF80000084010434A
:101410008DF80000C2B23946404600F002F8BDE83F
:10142000F88307B502AB012200F001F80EBD2DE9EB
:10143000F0411E461546884607460024FFF73AFF4E
:101440003846FFF707FFFFF77DFF4046FFF702FF33
:10145000FFF778FF06E0305DFFF7FCFEFFF772FF55
:10146000641CE4B2AC42F6D3FFF74CFF0120BDE8A8
:10147000F08110B51446FFF72DFE2070012010BD3D
:101480002DE9F34F524D8DB00846E9684F4E089153
:1014900003F070FF2968009103F096FEA96803F03D
:1014A00001FD05F19004069067683046394603F067
:1014B00061FFD4F80890494603F05CFF4549086095
:1014C000E268904682F00046434A4E60C1E90262FB
:1014D000009903F079FE216803F0E4FC834630466E
:1014E000009903F071FE0646394603F0DBFC8246A4
:1014F0003046494603F0D6FC81463748009903F050
:1015000063FE414603F0CEFC804606990D9803F039
:1015100031FF039059464FF07E5003F055FE0646CA
:1015200049464FF07E5003F04FFE049031464FF095
:101530007E5003F049FE4FF07C5103F0B3FC0746A8
:101540000146304603F016FD01903946049803F039
:1015500011FD009051464FF07E5003F035FE0746D6
:101560003146019803F030FE594603F0F9FE206041
:101570003946019803F028FE514603F0F1FE606001
:101580003146009803F020FE494603F0E9FEA060D2
:101590003946009803F018FE414603F0E1FEE06092
:1015A0000399019803F010FE069903F07BFCA860F4
:1015B00004460399009803F007FE089903F072FCB3
:1015C000E8600FB02046BDE8F08F00006F12833A4C
:1015D0001400002064050020A69B443B2DE9F34F36
:1015E000524D8DB00846A96B4F4E089103F0C2FED4
:1015F0002968009103F0E8FD696B03F053FC05F1E5
:10160000A004069067683046394603F0B3FED4F86C
:101610000890494603F0AEFE45490860E2689046EE
:1016200082F00046434A4E60C1E90262009903F02D
:10163000CBFD216803F036FC83463046009903F069
:10164000C3FD0646394603F02DFC82463046494626
:1016500003F028FC81463748009903F0B5FD414668
:1016600003F020FC804606990D9803F083FE03905A
:1016700059464FF07E5003F0A7FD064649464FF00D
:101680007E5003F0A1FD049031464FF07E5003F0F0
:101690009BFD4FF07C5103F005FC074601463046A8
:1016A00003F068FC01903946049803F063FC009055
:1016B00051464FF07E5003F087FD074631460198B2
:1016C00003F082FD594603F04BFE20603946019835
:1016D00003F07AFD514603F043FE60603146009806
:1016E00003F072FD494603F03BFEA06039460098C6
:1016F00003F06AFD414603F033FEE0600399019870
:1017000003F062FD069903F0CDFB6863044603997C
:10171000009803F059FD089903F0C4FBA8630FB0CB
:101720002046BDE8F08F00006F12833A14000020BD
:1017300074050020A69B443B2DE9F34F524D8DB01C
:101740000846696E4F4E089103F014FE2968009117
:1017500003F03AFD296E03F0A5FB05F1B0040690F5
:1017600067683046394603F005FED4F808904946CC
:1017700003F000FE45490860E268904682F00046AA
:10178000434A4E60C1E90262009903F01DFD2168E1
:1017900003F088FB83463046009903F015FD0646AA
:1017A000394603F07FFB82463046494603F07AFB18
:1017B00081463748009903F007FD414603F072FB6C
:1017C000804606990D9803F0D5FD039059464FF0D9
:1017D0007E5003F0F9FC064649464FF07E5003F078
:1017E000F3FC049031464FF07E5003F0EDFC4FF0D7
:1017F0007C5103F057FB07460146304603F0BAFB25
:1018000001903946049803F0B5FB009051464FF023
:101810007E5003F0D9FC07463146019803F0D4FC12
:10182000594603F09DFD20603946019803F0CCFC39
:10183000514603F095FD60603146009803F0C4FC0A
:10184000494603F08DFDA0603946009803F0BCFCCA
:10185000414603F085FDE0600399019803F0B4FC74
:10186000069903F01FFB286604460399009803F0CD
:10187000ABFC089903F016FB68660FB02046BDE884
:10188000F08F00006F12833A1400002084050020BE
:10189000A69B443B10B5022000F011F8032000F095
:1018A00020F8002000F014F8002000F02FF80020AD
:1018B00000F026F8BDE81040002000F01BB808B585
:1018C0000323009002226B21D020FFF780FD08BD8A
:1018D00008B50223009004221C21D020FFF777FDD9
:1018E00008BD08B50223009004221B21D020FFF779
:1018F0006EFD08BD034601223721D020FFF74EBD03
:10190000034605226A21D020FFF748BD0346062280
:101910006B21D020FFF742BD2DE9F04186B00025B4
:1019200027480095019502950395816941F02001B2
:101930008161816901F020010491816941F0040114
:101940008161816901F004010491816941F008011C
:10195000816180691B4F00F008004FF4004404903F
:10196000002221463846FFF785F8DFF85C80002228
:1019700038214046FFF77EF84FF440760122314689
:101980004046FFF777F800940124CDE90145694608
:1019900038460394FEF77EFF38208DE83100694613
:1019A00040460394FEF776FF0320CDE90250CDE9CF
:1019B000006469464046FEF76DFF06B0BDE8F08161
:1019C0000010024000080140000C0140FEE7FEE765
:1019D00010B40021084B0A465FF0000003EBC0047E
:1019E000401CC0B262548028F8D3491CC9B20829EF
:1019F000F2D310BC00F096B83801002010B57F2853
:101A000016D83F2914D80723A3EBD10301F007010F
:101A1000C1F107040121A140064CDBB204EBC00078
:101A2000002AC25CC9B201D00A4300E08A43C25412
:101A300010BD00003801002010B5394C0020C4F85A
:101A40008C01642004F5C67400F018FF01202060AA
:101A50000021AE2000F030F90021D52000F02CF953
:101A60000021502000F028F90021A82000F024F9DE
:101A700000213F2000F020F90021D32000F01CF9C4
:101A80000021084600F018F90021402000F014F968
:101A900000218D2000F010F90021142000F00CF935
:101AA0000021202000F008F90021022000F004F9B4
:101AB0000021A12000F000F90021C02000F0FCF876
:101AC0000021DA2000F0F8F80021122000F0F4F8EC
:101AD0000021812000F0F0F80021EF2000F0ECF868
:101AE0000021D92000F0E8F80021F12000F0E4F80E
:101AF0000021DB2000F0E0F80021302000F0DCF8CD
:101B00000021A42000F0D8F80021A62000F0D4F88D
:101B10000021AF2000F0D0F8BDE81040FFF758BF1B
:101B20000080214270B5114E002400BF04F1B000C6
:101B3000C0B2002100F0C0F80021084600F0BCF857
:101B40000021102000F0B8F85FF0000506EBC5009A
:101B50000121005D00F0B0F86D1CEDB2802DF5D3D1
:101B6000641CE4B2082CE1D370BD000038010020F1
:101B70002DE9FF4F203A1F460C46894602F0FF0A26
:101B80000025DDF834B032E00C2F09D01A4901EB02
:101B90000A104FF00008465D300607D55A4609E0A6
:101BA00016490AEB4A0001EB8000F2E7BBF1000F97
:101BB00012D0002221460098FFF720FF7006641C17
:101BC000060EE4B2A4EB0900B84207D100984C46D7
:101BD000401CC0B2009008E00122EBE708F10100D0
:101BE00000F0FF08B8F1080FD6D36D1CEDB2BD426E
:101BF000CAD3BDE8FF8F0000305A0008BC5500086A
:101C00002DE9FF4F81B00026DDF838A01D46934630
:101C1000814634464FF001084FEA5A0727E0281B57
:101C2000401EC1B20A2002F066FBBBFBF0F00A21A5
:101C3000B0FBF1F201FB120026B9691E8C4201DAF9
:101C400048B101263030C2B207FB0490C0B25346FF
:101C5000CDF8008006E007FB0490C0B25346202276
:101C6000CDF800800299FFF783FF641CE4B2AC4218
:101C7000D5D305B0BDE8F08FF8B516460D4604463D
:101C8000012714E07A2C02D900241035EDB23A2D48
:101C900003D900242546FFF79BFE009732780C23DA
:101CA00029462046FFF764FF0834E4B2761C3078FA
:101CB0000028E7D1F8BD000070B50F4C00250122C7
:101CC00011B1C4F8BC2101E0C4F8BC510B4B002198
:101CD000C3F89451060602D5C3F8902101E0C3F879
:101CE0009051C3F894214006491C000EC9B208293E
:101CF000EED3C4F8BC2170BD000021420080214217
:101D0000F8B53F4C207B012804D0022804D00328DA
:101D100004D008E03BA202E03BA200E03CA200218C
:101D20000846FFF7A9FF3BA20A210020FFF7A4FF06
:101D30003A4E2068B04207D339A20A213020FFF77B
:101D40009BFF2068B04204D236A20A213020FFF760
:101D500093FF206803F0D0F90C250095002800DAE5
:101D60004042024603230A213820FFF749FF2EA2F2
:101D700014210020FFF780FF2D4FF868B04207D3F1
:101D800027A214212A20FFF777FFF868B04204D277
:101D900024A214212A20FFF76FFF606803F0ACF93A
:101DA0000095002800DA4042024604231421322024
:101DB000FFF726FF1FA21E210020FFF75DFFF86836
:101DC000B04207D316A21E212A20FFF755FFF8685C
:101DD000B04204D213A21E212A20FFF74DFFA068B3
:101DE00003F08AF90095002800DA404202460423F5
:101DF0001E213220FFF704FFBDE8F840FFF792BE36
:101E000054050020444D50004B616C6D616E000024
:101E10004320460050697463680000000000808021
:101E20002D0000002B000000526F6C6C00000000C1
:101E30003805002059617700704700002DE9F04F08
:101E400089B0684C07A8CDE9004004F1260106AB33
:101E500002AA881F00F096FE2088C0057ED5029851
:101E600003F086F96FF01D06314603F058FB8046FB
:101E70006060039803F07CF9314603F050FB07469D
:101E8000A060049803F074F9314603F048FB05465E
:101E9000E060059803F06CF9314603F040FB06461C
:101EA00020610121404603F03AFB294603F08CF9FA
:101EB00005464FF040484146384603F085F9314623
:101EC00003F082F9294602F0EDFF02F0BFFF00F0B7
:101ED000BDF9DFF814A14FF066394A46534602F0C7
:101EE000DBFC02F09FFA6061E0680121054603F027
:101EF00016FB8346294603F067F90546A06841466C
:101F0000064603F061F9314603F05EF9294603F015
:101F100031FA4FF07E5102F0C5FF02F097FF0746FD
:101F20000D460121606803F0FAFA314603F04CF9DE
:101F300006465846216903F047F9314602F0B2FFE0
:101F400002F084FF3A462B4600F0C8FB4A4653464F
:101F500002F0A2FC02F066FAA06100E03FE0216915
:101F60000191084603F030F9E16807460846009100
:101F700003F02AF9A16806468B46584603F024F977
:101F8000616805468846404603F01EF9294602F07E
:101F900089FF314603F0EEF9394603F0EBF902F020
:101FA00055FF06460D464046019903F00DF90746D8
:101FB0005846009903F008F9394602F073FF0121F1
:101FC00003F0ADFA02F042FF32462B4600F086FBEA
:101FD0004A46534602F060FC02F024FAE06109B080
:101FE000BDE8F08F0001002066A64C4010B54221EC
:101FF000D020FFF76FF804464121D020FFF76AF8A0
:1020000004EB002003F0CCF8B0F18E4F03DD4FF06D
:102010008F4103F0AFF9094902F0ACFF02F016FF5F
:10202000074A084B02F030FA0022074B02F034FC5A
:1020300002F0F8F9BDE8104003F05EB80000AA43D2
:10204000A4703D0AD7434240000024407047FEF789
:102050001DBD30B58FB028216846FEF72DF914213B
:102060000AA8FEF729F901210804CDE9001000248F
:10207000029402250491CDE907504FF4E010099035
:102080006846FEF749FE08B172B6FEE70F20CDE9BB
:102090000A054FF48060CDE90C4002210AA80E9495
:1020A000FEF77EFD002801D072B6FEE70FB030BD0E
:1020B0007047FEE7490050EAC12018BF04204A0DCE
:1020C00018BF40F0010040F2FF72B2EB515F08BF51
:1020D00040F00200012808BF052070470907090EDB
:1020E000002804DB00F1E02080F80014704700F0C5
:1020F0000F0000F1E02080F8141D70472DE9F04139
:102100004F1E00EBC7010446D1E9000115461E46EB
:1021100037F006020DD02A46334602F0BDFB7F1E83
:1021200004EBC703D3E9002302F0AEF937F006024F
:10213000F1D1022F25D0042F13D0062F18BFBDE8F0
:10214000F0812A46334602F0A7FBD4E90A2302F0C5
:102150009BF92A46334602F09FFBD4E9082302F09C
:1021600093F92A46334602F097FBD4E9062302F09E
:102170008BF92A46334602F08FFBD4E9042302F0A0
:1021800083F92A46334602F087FBD4E9022302F0A2
:102190007BF92A46334602F07FFBD4E90023BDE8F1
:1021A000F04102F071B9012203F08BB902F06CB971
:1021B000002213461046114602F016BA024A0020C9
:1021C000110703F07EB9000001FDFFFF2DE9FE4F6E
:1021D00007460E460025684601F01EF800246FF001
:1021E0000F0AE8464FF0010957F8240056F824106A
:1021F000401A00D5404202F0BBFF514603F08FF970
:1022000058F8241011F0FF4F0BD002F0B3FE4FF03E
:102210007E5103F0AFF80A4920F00040884205DC07
:1022200007E0084908440849884202D309FA04F043
:102230000543641C032CD7DB2846BDE8FE8F000055
:10224000295C0F3E666666C19A99D9002DE9F04D6A
:102250008D4F21F0004A86B005460C46BA452ADB70
:10226000AAEB070028430AD08848824501DC1AD12E
:10227000CDB106B02846BDE8F04DFFF794BF844AC3
:10228000844B284602F008FB07460E46824A834BE1
:102290002846214602F000FB06B03A463346BDE828
:1022A000F04D02F0F1B80120FEF7ACF806B0BDE841
:1022B000F04DFFF77DBF7A48824542DABAF1795F87
:1022C0000BDA2846FFF7F6FE042808BFFFF776FF73
:1022D000284606B02146BDE8F08D2A460B4610463A
:1022E00002F0DAFA834602466E480E460B46062195
:1022F0007844FFF703FF5A46334602F0CDFA804692
:1023000069488A465A46334604217844FFF7F6FE68
:102310005A46334602F0C0FA00223B4602F0B4F8B7
:1023200002460B464046514602F05EF92A462346D5
:1023300002F0B2FA06B02A462346BDE8F04D02F09C
:10234000A3B8284624F0004100223D463B4602F057
:10235000A1FB4FF0FF3203F0B4F8064602465348A3
:102360000F460B4606217844FFF7C8FE32463B462F
:1023700002F092FACDE900014D4832463B46042175
:102380007844FFF7BBFE32463B4602F085FA002256
:102390002B4602F079F8834602913046394602F026
:1023A0001BF8804643480D46504517DCDDE9000127
:1023B0005A46029B02F018F942462B4602F06CFA8C
:1023C00042462B4602F060F8012203F07AF8304AC8
:1023D000304B02F051FC304A304B4CE04FF0000AD9
:1023E00052460B46404602F04FF8CDE903105246E4
:1023F0002B461046194602F04FFA32463B4602F091
:1024000049FBDDE9033202F0EFF806460F46DDE94D
:1024100000015A46029B02F0E7F883460091012230
:102420003046394603F04DF8194A1A4B02F032FB98
:1024300006460F4601224046294603F042F85A4616
:10244000009B02F029FA32463B4602F015FC064694
:102450000F4601225046294603F033F80E4DDFF8AF
:1024600058802A46434602F015FB32463B4602F0AE
:1024700011FB2A46434602F00DFB002CD8BF81F029
:10248000004106B0BDE8F08D0000F03F0000F07F95
:10249000075C143326A6913C182D4454FB21F93FC8
:1024A0000000E03F744900008A490000FE48000037
:1024B000144900003333EF3FFB21E93F2DE9F84F8A
:1024C00004460D4621F0004000917349814211DC21
:1024D0007249884201DC06D12CB120462946BDE86C
:1024E000F84FFFF760BE6E48002DCCBF6D496E49B6
:1024F000BDE8F88F6D49814211DD6D498142D8BF39
:102500004FF0FF366DDD20462946FFF7D3FD042846
:1025100008BFFFF753FE20462946BDE8F88F6549FE
:10252000654F25F00045814233DD6449814219DD64
:10253000002632464FF080432046294601F0A4FF92
:1025400080468A4601222046294602F0BAFF002230
:102550003B4602F091FB4246534602F045F80446E2
:102560000D463EE001260022BA463B46204629465B
:1025700001F08AFF80460F46002253462046294636
:1025800002F07AFB42463B4602F02EF804460D4626
:1025900027E04B4981421BDDDFF828A102260022FB
:1025A00053462046294602F077F900223B4601F0C7
:1025B0006BFF80460F46002253462046294602F014
:1025C0005BFB42463B4602F00FF804460D4608E02E
:1025D000032622462B4600203B4902F005F804461C
:1025E0000D4622462B461046194602F055F98B46F9
:1025F000824602460B4602F04FF907460246334830
:1026000088460B4606217844FFF778FD52465B4624
:1026100002F042F982462E488B463A46434605214F
:102620007844FFF76BFD3A46434602F035F902461F
:102630000B46002E504659460CDA01F025FF224683
:102640002B4602F029F901B022462B46BDE8F04F97
:1026500002F020BA01F018FF22462B4602F01CF9C6
:102660001C4A7A4402EBC603D3E9002302F004FBC0
:1026700022462B4602F000FB174A7A4402EBC603BF
:10268000D3E9002302F006FA009A002AB8BF81F0CD
:102690000041BDE8F88F0000000010440000F07F0A
:1026A000182D4454FB21F93FFB21F9BF0000DC3F0A
:1026B0000000203E0000F33F0000F03F0000E63F36
:1026C000008003400000F83F0000F0BF1647000004
:1026D000D4460000724600003A4600002DE9F04D55
:1026E0009446CCF1000423F000464CEA0404524F17
:1026F00046EAD4749A46884621F00042BC4206D885
:10270000454240EA050442EAD474BC4204D9BDE81B
:10271000F04D6246FFF74ABDAAF14055A5F17F652D
:1027200055EA0C040BD0022404EAAA74434DDFF8E6
:1027300010E144EAD87452EA000B04D00CE0BDE882
:10274000F04DFFF7BBBE002C14BF012CBDE8F08D8F
:10275000022C30D0032C32D056EA0C0B0AD0BE42E9
:1027600020D1BA4209D126F0804622F08042334679
:10277000114617E000291ADB25E0DFF8C8B0FB445A
:10278000002C04BFDBE90001BDE8F08D012C02BF85
:10279000DBE9000181F00041BDE8F08D022C0AD098
:1027A000032C0CD0BA4212D1B8F1000F0BDA234837
:1027B0002549BDE8F08D28462449BDE8F08D28461E
:1027C0007146BDE8F08D1D482149BDE8F08D921B92
:1027D00012153C2AC4BF19481D490EDCBAF1000F7E
:1027E000BEBF12F13C0F0020014606DB624601F03D
:1027F000FBFE21F00041FFF761FE002C08BFBDE8A1
:10280000F08D012C04BF81F00041BDE8F08D114A2C
:10281000114B022C07D002F02FFA2A46BDE8F04DEA
:102820000A4B02F029BA02F027FA2A46BDE8F04D19
:10283000064B02F02FB900000000F07F182D445421
:10284000FB2109C0CE450000FB21F9BFFB21094057
:10285000FB21F93F075C143326A6A13C4FF0E02092
:10286000016921F00401016103480921017042F26C
:102870002831418070470000100000200B49498832
:1028800048434FF0E021486100228A61086940F026
:10289000010008610869C30701D0C003FAD50869BF
:1028A00020F0010008618A617047000010000020DC
:1028B0000B49097848434FF0E021486100228A61C2
:1028C000086940F0010008610869C30701D0C0032E
:1028D000FAD5086920F0010008618A61704700009C
:1028E0001000002008B560B120208DF800002820DD
:1028F0008DF8010030208DF8020038208DF803009B
:1029000004E0A32204216846FDF7CEFC6A460421B8
:1029100040F69E2001F0C4FC01F08AF908BD0000D9
:102920003EB5044602208DF80000CA208DF8010053
:10293000E3208DF8020009208DF803006A46042187
:10294000682001F0ADFCA3208DF80000610609D5D8
:10295000C0218DF80110C8218DF80210C2218DF818
:10296000031005E08DF801008DF802008DF80300DA
:1029700014F4C07F09D0C4218DF80410CC218DF847
:102980000510C6218DF8061005E08DF804008DF8BD
:1029900005008DF806008DF808008DF807008DF809
:1029A00009006A460A2140F6A72001F079FCA00739
:1029B0004FF0D80503D020208DF8000001E08DF8FD
:1029C00000506A46012140F6B62001F069FCA006DD
:1029D00001D5012000E0002000F08EF814F4C07F43
:1029E0001ED0E0050AD5B2208DF800008B208DF8AE
:1029F0000100B6208DF802009B2009E0B0208DF880
:102A0000000080208DF80100B4208DF80200902095
:102A10008DF803006A46042140F6A22001F040FC34
:102A2000E1074FF40B6022D0F8218DF800106A46C0
:102A3000012101F035FCFA21072000F039FB0720C5
:102A400000F004FB012000F021FB642000F0C4FB37
:102A50004FF4FA7000F0D0FBC821254800F0BEFA10
:102A6000282000F0D3FA0A2000F0E0FA05E08DF803
:102A700000506A46012101F013FCA00703D5D920BC
:102A80008DF8000001E08DF800506A46012140F207
:102A90003D7001F005FC600701D5012000E0002039
:102AA00000F048F8E00601D5012000E00020FFF723
:102AB00019FF104D44F00800688101F0B9F80020BA
:102AC000A873600601D50620A87314F4C07F02D055
:102AD000A87B801DA87314F0140F02D0A87B1030BF
:102AE000A873A00702D0A87B001DA87300203EBDDC
:102AF00009E3CA02940500200EB54FF4976310B1A4
:102B000006A107C901E008A207CA8DE807006A46C6
:102B10000921184601F0C4FB0EBD0000B8AAB38D10
:102B2000B4980D355D000000B8AAAAAAB088C3C544
:102B3000C700000008B560B1C0208DF80000C220B9
:102B40008DF80100C4208DF80200C6208DF8030026
:102B500004E08B2204216846FDF7A6FB6A460421A7
:102B600040F6982001F09CFB01F062F808BD0000DF
:102B7000C8234FF48062024940F6F63000F03ABFB5
:102B8000706000082DE9FF4F89B01746DDE9165245
:102B900000244C4E884681462C80A246B07B694674
:102BA00000F0D4FF4FF0FF3B18B158460DB0BDE820
:102BB000F08F708910F0140F3CD0009909BA21F001
:102BC000FF039DF803100B433B6001991B1409BAE6
:102BD00021F0FF029DF807105B430A437A600299D7
:102BE0009DF80B4009BA21F0FF012143B960039C15
:102BF000091424BA24F0FF0C9DF80F4012144CEA7B
:102C0000040CC7F80CC04FEA2C47494302FB0232C0
:102C100007FB071111441024A1F17061B1F1007F8D
:102C200004D901F005F8A5F800A0BEE7298841F411
:102C3000807129804206694611D50A19A41D13889E
:102C40005BBAA8F8003053885BBAA8F802309288C3
:102C500052BAA8F804202A8842F008022A8010F408
:102C6000C07F11D00A19A41D13885BBAA9F80030DF
:102C700053885BBAA9F80230928852BAA9F80420A6
:102C80002A8842F070022A80800716D00C44E0782F
:102C900000F0C00500F03F016078C00706D0C8080A
:102CA00001F007013268491C02B1904760780007C3
:102CB00003D5716809B1A80988470C9801F01AFB7F
:102CC000002073E7940500202DE9FF41044603A886
:102CD00000F078FDBDF80C00410CC3032F480289B9
:102CE00002F00300550754F8200000D54042C2F31B
:102CF000C105960654F8255000D56D42C2F38116E1
:102D0000D20554F8264000D56442A0FB0367C217E1
:102D100002FB037200FB0120820042EA9670A5FBD1
:102D20000367EA1702FB037205FB0122950045EADF
:102D30009672A4FB0367E51705FB037304FB0131DF
:102D40008B0043EA9671030E8DF80030030C8DF86A
:102D50000130030A8DF802308DF80300100E8DF853
:102D60000400100C8DF80500100A8DF80600080EFE
:102D70008DF80800080C8DF80900080A8DF80A0083
:102D80008DF807208DF80B106A460C214FF4257042
:102D900001F086FA04B0BDE8F0810000940500203F
:102DA00030B5044613A285B007CA8DE807004FF07E
:102DB000FF35C82C16D8C820B0FBF4F1491E080A0C
:102DC0008DF80C008DF80D1003AA022140F2162098
:102DD00001F066FA30B96A460C2140F6C12001F0D4
:102DE0005FFA10B1284605B030BD05488481002047
:102DF000F9E70000FEF2ABC4AAF1DFDFBBAFDFDF13
:102E000094050020F8B53049098901F0030250F813
:102E100022404A0700D56442C1F3C1028B0650F834
:102E2000222000D55242C1F3811350F82330C80547
:102E300000D55B42254984FB0140850045EA94703A
:102E400082FB0142A40F44EA820483FB0121950F17
:102E500045EA8105010E8DF80010010C8DF8011076
:102E6000010A8DF802108DF803006A4604214FF420
:102E7000747001F015FA4FF0FF3688B9200E8DF806
:102E80000000200C8DF80100200A8DF802008DF85A
:102E900003406A4604214FF4757001F001FA08B14D
:102EA0003046F8BD280E8DF80000280C8DF8010082
:102EB000280A8DF802008DF803506A4604214FF469
:102EC000767001F0EDF9F8BD9405002009E3CA021F
:102ED0002DE9FF4104463CA004F003030068029082
:102EE0003AA0006803903AA006683AA0056802A8D4
:102EF000C15C8DF80010C4F3C101425C8DF8012063
:102F0000C4F38112805C8DF8020003A8C35C8DF8C5
:102F10000430415C8DF80510805C8DF806006A462F
:102F2000032140F2264001F0BBF94FF0FF37E0BB30
:102F300001AA032140F22A4001F0B2F9A8BBCDE971
:102F4000006560070BD59DF8000040F001008DF88A
:102F500000009DF8040040F001008DF80400A00678
:102F60000BD59DF8010040F001008DF801009DF89F
:102F7000050040F001008DF80500E0050BD59DF837
:102F8000020040F001008DF802009DF8060040F0BC
:102F900001008DF806006A4603214FF4886001F0B5
:102FA0007FF910B901AA032100E004E040F23140AA
:102FB00001F076F918B1384604B0BDE8F081064852
:102FC00004810020F8E700004CCD6C000CC92C00F7
:102FD0003656760026466600940500204FF47A7235
:102FE00090FBF2F008B54843010E8DF80010010C7B
:102FF0008DF80110010A8DF802108DF803006A4661
:1030000004214FF4AE7001F04BF908BD0521B0FB6F
:10301000F1F008B5010A8DF800108DF801006A463C
:1030200002214FF4AD7001F03BF908BD0521B0FB62
:10303000F1F008B5010A8DF800108DF801006A461C
:1030400002214FF4AC7001F02BF908BD08B5002146
:103050008DF80010C10702D030218DF800108107D3
:1030600005D59DF8001041F00C018DF800104007C7
:1030700005D59DF8000040F003008DF800006A4679
:1030800001214FF4A47001F00BF908BD08B560B13F
:10309000042800D90420401E8DF800006A46012152
:1030A00040F24F1001F0FCF808BD0120F3E70000EA
:1030B0002DE9FC41054640074FF0FF367CD0B1F5C5
:1030C000C86F79D8084602F06BF83E4901F052FF0C
:1030D000074601A800F058FB9DF80400022806D01E
:1030E00004280DD008282ED0102865D134E00E21F8
:1030F000384602F014FA02F01BF884B2324907E0B5
:103100000D21384602F00BFA02F012F82F4984B272
:10311000384602F059F802F00BF8210A8DF8001039
:1031200080B28DF80140010A8DF802108DF803007D
:10313000E8076C4620D0224602214FF4EA7001F0E5
:10314000AFF8C8BB11E00C21384602F0E8F901F0F5
:10315000EFFF84B21E49DBE70B21384602F0DFF9AE
:1031600001F0E6FF84B21B49D2E7A21C02214FF412
:10317000927001F095F8F8B9A8070DD56A460221BA
:103180004FF4EC7001F08CF8B0B9A21C02214FF49E
:10319000947001F085F878B9680710D56A46022165
:1031A0004FF4EE7001F07CF830B9A21C02214FF40C
:1031B000967001F075F810B13046BDE8FC81002032
:1031C000FBE7000000004843000040460000C04507
:1031D000000040450000C0440521B0FBF1F008B5F7
:1031E000010A8DF800108DF801006A4602214FF4A3
:1031F000EF7001F055F808BD0521B0FBF1F008B5FE
:10320000010A8DF800108DF801006A4602214FF482
:10321000ED7001F045F808BD2DE9FE43064626484D
:1032200001AB042240680D210078FDF71BFF10B1AF
:103230000720BDE8FE839DF804101C2000EAD1029F
:103240009DF80710DFF87490C1F301131A438DF84D
:1032500000209DF80520C1F3810300EAD2021A4341
:103260008DF801209DF8062001F0030100EAD2004C
:1032700008430024124F8DF80200A0466D46285DD9
:1032800010B146F824900AE046F824800DE000BF13
:1032900056F82400394601F097FF46F82400285DCF
:1032A000401E10F0FF002855F2D1641CE4B2032C3C
:1032B000E5D30020BDE70000D40000207B14AE3E23
:1032C0001D5A843F2DE9FE4F05460120C14E8DF861
:1032D00000004FF000088DF8018030680C4617465A
:1032E000817C70686B4602220078FDF712FF4FF078
:1032F000FF3A00287AD1C820FFF7C0FA8DF8008085
:1033000030686B460122C17B70680078FDF701FFD1
:103310000028EFD130686B4601224179706800784F
:10332000FDF7F7FE0028E5D130686B460122817C6D
:1033300070680078FDF7EDFE0028DBD130686B4641
:103340000122C17D70680078FDF7E3FE0028D1D12D
:1033500030686B460122017970680078FDF7D9FE6C
:103360000028C7D14FF00C098DF8009030686B46EB
:103370000122017970680078FDF7CBFE002835D175
:103380000F20FFF77BFAB06A6B460122407A8DF876
:1033900000003068817870680078FDF7BAFE002878
:1033A00024D1B06A6B460122007A8DF800003068A3
:1033B000417870680078FDF7ACFE002873D1B06AE0
:1033C000807A0FB140F0E0008DF8000030686B4665
:1033D0000122817970680078FDF79BFE002862D198
:1033E0002FB1B06AC07A40F0E00001E04AE0182056
:1033F0008DF8000030686B460122C1797068007852
:10340000FDF787FEF0BB17B1C820FFF737FA402061
:103410008DF8000030686B460122017970680078F1
:10342000FDF777FE70BB78208DF8000030686B46A2
:103430000122417970680078FDF76BFE10BB3220E5
:10344000FFF71CFA8DF80080306847466B464179DB
:10345000706801220078FDF75CFE98B931687068E9
:10346000B046897A00786B460222FDF7FBFD48B929
:10347000BDF80000AF6040BAB0FBF9F06F60C6B2B3
:103480002F6000E00FE0A76067602760002739E049
:10349000D8F80010D8F804006B46C97A00780C22DE
:1034A000FDF7E0FD10B15046BDE8FE8FBDF800000D
:1034B000236840BA02B2BDF80200BDF804101A44F5
:1034C000226040BA626800B21044606049BAA068E5
:1034D00009B20844A060BDF806002B6840BA02B2E9
:1034E000BDF808001A4440BA01B2BDF80A002A60CB
:1034F0006A6840BA11446960A96800B208447F1C38
:10350000FFB2A860B742C3D328688322C117090459
:1035100041EA104100040023FCF776FE3246002306
:10352000FCF772FE286068688322C117090441EA2B
:10353000104100040023FCF767FE32460023FCF72D
:1035400063FE6860A8688322C117090441EA10413C
:1035500000040023FCF758FE32460023FCF754FE1B
:10356000A86020684FF40065C117090441EA1041C2
:1035700000042A460023FCF747FE32460023FCF7EE
:1035800043FE206060682A46C117090441EA1041E1
:1035900000040023FCF738FE32460023FCF734FE1B
:1035A0006060A0682A46C117090441EA104100047E
:1035B0000023FCF729FE32460023FCF725FEA0601D
:1035C000002802DDA0F5803001E000F58030A06029
:1035D000002069E7D40000202DE9F84F81462E48ED
:1035E0008846002540686B46032200780D21FDF7D0
:1035F00039FD10B10720BDE8F88F9DF800000024C8
:1036000000F01F008DF800009DF801006FF00F0B17
:1036100000F01F008DF801009DF802006E4600F0DA
:103620001F008DF802004FF0010A00BF59F8241066
:1036300058F82400081A00D5404201F099FD594677
:1036400001F06DFF0746305DC0B1144802E0144937
:1036500001F0BAFD315D491E11F0FF013155F6D17F
:103660000146384601F086FC4FF07E5101F082FEA3
:103670000C4920F00040884205DC07E00A48384445
:10368000B0F1D97F02D90AFA04F00543641C032C77
:10369000CCDB2846AFE70000D40000200000C84182
:1036A00054E3853F295C0F3E0000E0BE90F9001016
:1036B000002902DD4FF00000704702DA4FF00400ED
:1036C000704790F90110002902DD4FF001007047AA
:1036D00002DA4FF00500704790F90200002802DD81
:1036E0004FF00200704702DA4FF0060070474FF0CB
:1036F00007007047FDF7D2F9FEF7ABFCFEF70CF9B7
:10370000FFF7ACF8FEF798F900F00CF8044C012034
:1037100084F80C00FEF7F4FA207BFCF779FFF9E758
:103720005405002010B5FEF7B5F8BDE81040FCF7D1
:1037300017BF00002DE9F041124C20F001010025D7
:1037400094F8240010B10020BDE8F081A07A4FF079
:10375000FF3668B10840277C2074884200D0354687
:1037600041B1012000F00CFE00F062FA38B127747C
:103770003046E9E7207D00B1012000F001FE284637
:10378000E2E70000D40000200D494A7A42B1012A44
:1037900008D0022A0FD0032A0FD04FF0FF30704715
:1037A000022200E004220270C97C11B11106C90D89
:1037B0000170002070470822F5E71022F3E70000AF
:1037C000D40000200F494A7A42B1012A09D0022AC6
:1037D00011D0032A12D04FF0FF3070474FF48042CF
:1037E00001E041F69C720280C97C11B1C2F34E0126
:1037F0000180002070474FF48052F4E74FF40062DC
:10380000F1E70000D40000200B49097A39B1012901
:1038100007D002290AD003290BD0002103E0FA21A6
:1038200001E04FF4FA710180002070474FF47A7183
:10383000F9E74FF4FA61F6E7D40000200A49097A63
:1038400041B1012908D002290AD003290AD04FF03A
:10385000FF307047054900E00549016000207047CE
:103860000449FAE70449F8E7D400002000000343C4
:103870000000834233330342333383410C49C97A16
:10388000072913D2DFE801F01204060A0C0E10001B
:10389000BC2100E062210180002070472A21FAE764
:1038A0001421F8E70A21F6E70521F4E70021F2E701
:1038B000D4000020054991F8242012B14FF0FF30C8
:1038C0007047C9890180002070470000D4000020A3
:1038D0002DE9FC41464C80208DF8000020686B46A5
:1038E0000122817C60680078FDF713FC4FF0FF3700
:1038F000002875D16420FEF7C1FF00258DF8005027
:1039000020686B460122817C60680078FDF701FC2D
:10391000002865D120686B460622817D60680078AA
:10392000FDF7A0FB00285BD19DF805009DF8031072
:10393000C007400F01F0010140EA41009DF801106D
:103940004FF0010601F00101084304D0012831D0F5
:10395000022810D044E020686B460122C1786068DC
:103960000078FDF77FFBD8BB9DF8000010F00F003A
:1039700036D004281ED0E574FF2004F80A0F4FF655
:10398000FF7104F8020C04F8010C6070A180A071B2
:103990002072A67026766576E572A572E5602561CF
:1039A0006561A576E576A5834FF4FA6000F03EFBED
:1039B000B0B901E0E674DFE7022000F059FA78B907
:1039C0002A2000F09BFB58B9322000F0CDFB38B91B
:1039D0000020FFF7AFFE18B9002000F07DFA10B10B
:1039E0003846BDE8FC81002000F0FEFB0020F8E72F
:1039F000D40000202DE9FF4FDFF89480064685B003
:103A000098F8250015460F464FF0FF39B0BBAFB30D
:103A1000002420E0301B102800DD102080B28346F7
:103A20003A1901469246204600F03AFC30BB6A46FD
:103A30005946204600F0D2F800BB50465A46694627
:103A4000FCF706FC20B16FF0010009B0BDE8F08F73
:103A500004EB0B0084B2B442DCD3280A8DF81000CA
:103A60008DF81150D8F80000444604AB817ED8F898
:103A7000040002220078FDF74CFB08B14846E4E759
:103A8000012084F825000898E0840020DDE700008C
:103A9000D40000202DE9F84305464FF0FF392828CF
:103AA00044D80727284C00267DB1012000F0F4FA05
:103AB00020208DF800004FF00108012D17D0052DB2
:103AC00018D88DF8018005201FE0002000F0E4FAEE
:103AD0008DF800608DF8017020686B460222817CB1
:103AE00060680078FDF715FB00BB267529E08DF8AE
:103AF0000160E8E7142D04D802208DF801000A20A7
:103B000003E003208DF80100142000F0F7FA9DF87F
:103B100001006B4607EB80108DF80100206802223F
:103B2000817C60680078FDF7F4FA10B14846BDE882
:103B3000F8830820A072267384F814800020FFF711
:103B4000F9FD0020F3E70000D40000202DE9F84340
:103B5000214C0646174694F8240089464FF0FF385A
:103B600090B3A07A80B320686B460222817A6068A5
:103B70000078FDF777FA38BBBDF8000045BAB542CA
:103B800002D2002038701FE060684188B5EB510F09
:103B900011D9216800786B46497C0122FDF762FA51
:103BA00090B99DF80000C00605D500F041F86FF00F
:103BB0000100BDE8F8832068F2B24B46C17A606824
:103BC0000078FDF74FFA08B14046F2E7B5FBF6F092
:103BD000401E38700020ECE7D4000020F8B5160035
:103BE0000D464FF0FF371FD0104CA17AE1B1010A0A
:103BF0008DF80010C0B28DF801004119606842894B
:103C0000914211D8216800786B46097E0222FDF7A7
:103C100080FA48B92068EAB23346417D606800788E
:103C2000FDF720FA002800D03846F8BDD400002067
:103C3000F8B5524C4FF0FF36A07A00287CD0002512
:103C40008DF8005020686B460122C17B60680078C7
:103C5000FDF75FFA00286FD120686B460122417999
:103C600060680078FDF755FA002865D120686B463A
:103C70000122017960680078FDF74BFA00287AD1BB
:103C800094F82400C8B30C208DF8000020686B461F
:103C90000122017960680078FDF73BFA00286AD1BB
:103CA000C0208DF80000A07AC00702D0E0208DF877
:103CB000000020686B460122017960680078FDF7FA
:103CC00028FA002857D1607C18B102208DF8000036
:103CD00001E08DF8005020686B460122C17B6068CE
:103CE0000078FDF716FA38BB8DF8005020686B4657
:103CF000012241796068007839E0FFE704208DF8FF
:103D0000000020686B460122017960680078FDF7A9
:103D100000FA88B9A07C80B9A07AC0070DD06020D5
:103D20008DF8000020686B460122017960680078F8
:103D3000FDF7EFF900B902E01DE04020F0E7607CFC
:103D400018B101208DF8000001E08DF800502068C6
:103D50006B460122C17B60680078FDF7DAF950B943
:103D60002068064B01224179606810330078FDF726
:103D7000D0F9002800D03046F8BD0000D400002063
:103D80002DE9F047394C82468AB094F824000F465A
:103D900020B1002000F00EF9012600E0002607A85F
:103DA000FFF732FD06A8FFF7EFFC09A8FFF766FD55
:103DB00008A8FFF77FFD94F80A9094F8108000257A
:103DC000002239465046FFF77DFA10B16D1C022DD6
:103DD000F6DB022D1AD00025012203A96846FFF761
:103DE00071FA10B16D1C022DF6DB022D0ED003A965
:103DF0003846FEF7EBF9C7B269465046FFF7ECFBD1
:103E000010F0FF0F4FF0000502D002E0002503E0A4
:103E100001250FB945F00205FF2020726072E072A3
:103E20004FF6FF71E181A072207401202073BDF86C
:103E30001C0000F0FBF89DF8180000F019F8BDF820
:103E4000240000F05BF9BDF8200000F08DF9484631
:103E500000F0CAF94046FFF76DFC16B1012000F0F2
:103E6000A9F80AB02846BDE8F0870000D400002079
:103E700038B5184C4FF0FF35A17A19B3022806D097
:103E8000042806D008280ED010281BD10DE00020F1
:103E900000E008208DF80000607A9DF80010B0EB7B
:103EA000D10F04D005E01020F4E71820F2E700203D
:103EB00038BD20686B460122C17960680078FDF743
:103EC00028F908B1284638BD9DF80000C008607286
:103ED000EDE70000D4000020F8B5354C0546A07C85
:103EE000A84201D10020F8BD31484FF0FF366B46A3
:103EF000D0E900104FF001020979007835B3FDF7E1
:103F0000B1F870BB9DF800006B4620F020008DF8E2
:103F1000000020680122017960680078FDF7F9F857
:103F2000F8B90320FEF7AAFC02208DF8000094F8EF
:103F3000220078B382202BE020686B460122017DAD
:103F400060680078FDF7E5F858B92EE0FDF78AF8CB
:103F500038B9A07AC0079DF8000003D040F02000D7
:103F600002E00CE020F020008DF8000020686B4695
:103F70000122017960680078FDF7CBF808B130467E
:103F8000F8BD0320FEF77AFC94F8220000B18020EF
:103F90008DF8000094F823000028CDD09DF8000093
:103FA00040F030008DF80000C6E7A5749AE70000E5
:103FB000D400002038B51C4C94F8241081421DD048
:103FC000002500B394F82500D0B1002000F0D8F906
:103FD0000020FFF781FFE08C00F0C6F88DF800505C
:103FE00060686B46012200782321FDF792F80120DA
:103FF00084F8240000F0C4F9FFF71AFE002038BD51
:104000004FF0FF3038BD002000F0BAF9207C8DF869
:10401000000060686B46012200782321FDF779F8E3
:1040200084F82450E8E70000D400002038B5194C8B
:104030004FF0FF35A17A31B3FA2809D0B0F5FA7FF5
:1040400008D0B0F57A7F0FD0B0F5FA6F1BD10DE034
:10405000002000E008208DF80000207A9DF8001074
:10406000B0EBD10F04D005E01020F4E71820F2E700
:10407000002038BD20686B46012281796068007895
:10408000FDF747F808B1284638BD9DF80000C00884
:104090002072EDE7D400002038B5174C054694F89F
:1040A0002300A84201D1002038BD0DB1302000E02E
:1040B00000208DF80000A07C28B19DF8000040F0A1
:1040C00002008DF8000094F8220028B19DF800004D
:1040D00040F080008DF8000020686B460122017DD1
:1040E00060680078FDF715F810B14FF0FF3038BD6B
:1040F00084F82350D7E70000D400002038B5194CCD
:104100004FF0FF35A17A31B3BC2801D3012010E074
:10411000622801D302200CE02A2801D3032008E002
:10412000142801D3042004E00A2801D3052000E06C
:1041300006208DF80000E07A9DF80010884201D139
:10414000002038BD20686B460122817860680078C5
:10415000FCF7DFFF08B1284638BD9DF80000E0728B
:10416000EEE70000D4000020F8B51E4D04464FF0E5
:10417000FF37A87A48B395F8240030BB287D4FF468
:104180007A7648B164B1282C03D8E0B2FFF782FCFC
:1041900026E00020FFF77EFC042C05D2042406E074
:1041A0000020FFF777FCF9E7B44200D93446B6FBAC
:1041B000F4F0401E8DF8000028686B46012241781B
:1041C00068680078FCF7A5FF08B13846F8BD9DF88F
:1041D0000000401CB6FBF0F0E8814008FFF78EFFBE
:1041E0000020F8BDD4000020F8B5054610F0700F8F
:1041F0004FF0000601D0012004E015B18DF80060F9
:1042000002E040208DF80000244C6B46012220681B
:10421000817C60680078FCF77CFF4FF0FF3760BB63
:104220009DF8000020F0400020738DF800606806C3
:1042300002D404208DF80000A80605D49DF80000E3
:1042400040F002008DF80000E80605D49DF800005B
:1042500040F001008DF80000280705D49DF800000B
:1042600040F038008DF8000020686B460122C17CC8
:1042700060680078FCF74DFF10B1A6723846F8BDB3
:1042800025B1082D02D00020FFF706FFA572267584
:104290003220FEF7F3FA0020F8BD0000D400002021
:1042A000F8B516000D464FF0FF371FD0104CA17A1D
:1042B000E1B1010A8DF80010C0B28DF8010041197A
:1042C00060684289914211D8216800786B46097E66
:1042D0000222FCF71EFF48B92068EAB23346417D4E
:1042E00060680078FCF715FF002800D03846F8BD5C
:1042F000D400002070470246012000E05043491ED0
:10430000C9B2FBD2704710B588B0694604A8FFF760
:1043100037FD072832D107A8FFF790FA049800F07C
:1043200027FF07990C4600F04FFF00F0E5FE0490D0
:10433000059800F01DFF214600F046FF00F0DCFE6E
:104340000590069800F014FF214600F03DFF00F0B4
:10435000D3FE069004A8FEF755FD03A8FFF732FA36
:10436000BDF80C000099414300910199414301912E
:104370000299414368460291FEF7A6FC08B010BDC1
:10438000F8B5144C0146224694F82460D2E90002A4
:1043900000235D1E56B179B1022111E0C17B107876
:1043A0006B460122FCF7B5FE68B90EE0A67A56B15D
:1043B00011B1617C61B902E08DF80030EEE70121B6
:1043C0008DF80010EAE72846F8BD9DF800006074FB
:1043D0000020F8BDD40000202DE9F04106460F462C
:1043E00000F064FB041E0D4618BF0120284320F096
:1043F0000040C0F17F6000F1E040C00F0ED0301CE3
:1044000018BF0120384320F00040C0F17F6000F168
:10441000E040C00F04BF0120FBF7F4FF204629460F
:10442000BDE8F08121F00042A2F16052B2F5801F98
:1044300001F0004328BFD2F17F6C0BD95FEA001C6A
:1044400043EAC20242EB507018BF704728BF20F009
:1044500001007047B2F5801FBCBF184670474FEA95
:10446000410C1CF5001F02D2084600F074BF70B565
:1044700000F0BCFA00000089FFF7F6BF4FF00040E3
:10448000A0F580007047000010B591EA030F48BF07
:1044900083F0004300F1F883841A71EB030C05D21A
:1044A000121943EB0C03001B61EB0C01DFF824E154
:1044B0004FEA1154A4EB135C1EEA430F18BF9EEAA7
:1044C000445F73D023EA0E03DCF1200E21EA04518D
:1044D00043F4801332D322FA0CFE10EB0E0023FAC1
:1044E0000CFE41EB0E01CCF1200E03FA0EFE10EB98
:1044F0000E0051F10001B1F5801FCCF1200E32D237
:1045000001EB045112FA0EF2BDE8104058BF70479B
:10451000401C38BF5FEA420218BF7047002814BF32
:1045200020F0010041F100014FEA410313F5001FA3
:1045300038BF7047A1F1C04100F0A6BA012A43EB91
:104540000302ACF1200CDCF11F0E32BF4FF0000E65
:1045500023FA0CF310EB030041EB0451B4EB115FB1
:10456000D0D0A1EB045101F5801149085FEA300079
:1045700001EB04510ED350F1000038BF12FA0EFEC9
:1045800008D1BDE81040C9E7401C38BF5FEA4202CD
:10459000CAD1C3E7BDE810404FEA410313F5001F3D
:1045A00038BF7047A1F1C04100F06EBA9EEA445F87
:1045B00008D011EA5E0FBDE8104004BF01F00041D1
:1045C00000207047BDE8104070B500F00FFA00BF42
:1045D00064FBBE3E0000E0FF02494FF0000000F027
:1045E0003EBF00BF0000F87F2DE9C04130B4DFF8C6
:1045F000A0C23CEA111418BF3CEA131400F0EC808E
:1046000081EA03051CEA111444EAD57418BF1CEAB8
:10461000131500F0C780A4EB05044FF0004545EAF0
:10462000C12145EAC32341EA505143EA525304F100
:104630007F74994204F500344FEAC0204FEAC22249
:1046400008BF904200F09C804FEA13650FF24016BD
:10465000765D4FEA134506FB05F7C7F1807706FB49
:1046600007F74FEAD737A7FB03687642C8F58038CB
:10467000A7FB06CE38BFA8F1010807FB08E64FF0FC
:10468000000EA6FB028CE6FB03CEDCF1000CCEF1A3
:10469000004E38BFAEF1010EA6FB0C584FF00007DC
:1046A0004FF00005E6FB0E87A1FB08C6A0FB07CE76
:1046B00016EB0E0645F10005E1FB076515F1E04E2E
:1046C0007EBFA4F580345FEA46066D4116F180078F
:1046D00045F100054FEA17274FEA066647EA0567E6
:1046E000A6F1DE46B6F1805F4FEA15251FD93846A0
:1046F00024F0010C05EBC471BCF1FE6F01EB0C1151
:1047000002D8F0BCBDE8008124425CBF01F5801EE8
:104710009EEAC47F02D4F0BCBDE80081244238D4B4
:10472000F0BCA1F1C041BDE8004100F0ADB94FEAD5
:10473000D22242EA43524FEAD323A7FB02864FEA32
:10474000D02040EA415007FB03661EEA0E0F4FEAF5
:10475000D12105FB026658BFA6EB0056B6EB00560A
:104760004FEA520E4EEAC37E18EB0E0E56EB530E76
:10477000BDD518EB02085E417F1C55F10005B6E778
:104780004FF480154FF000074FF000064FF000087F
:10479000ADE7F0BC4FF0000001F1C04101F0004175
:1047A000BDE8008111EA0C1F0CEA131500D00CE0E3
:1047B00013EA0C1F00F025804FF00000F0BC81EAE6
:1047C000030101F00041BDE80081F0BCBDE80041FB
:1047D00081EA030100F058B9F0BCBDE8004170B5B2
:1047E00000F004F9097EFC3E00F007B881EA0301FD
:1047F0004FF0000001F00041704781EA030100F032
:1048000043B9F0BCBDE800414FF0000021497047BA
:10481000FFFDFBF9F7F5F4F2F0EEEDEBE9E8E6E485
:10482000E3E1E0DEDDDBDAD8D7D5D4D3D1D0CFCD0C
:10483000CCCBCAC8C7C6C5C4C2C1C0BFBEBDBCBB45
:10484000BAB9B8B7B6B5B4B3B2B1B0AFAEADACAB40
:10485000AAA9A8A8A7A6A5A4A3A3A2A1A09F9F9E1A
:104860009D9C9C9B9A9999989797969595949393CC
:10487000929191908F8F8E8E8D8C8C8B8B8A898963
:1048800088888787868585848483838282818180E6
:104890000000FF070000F87FDFF848C170B51CEA90
:1048A000111E1EBF1CEA13159EEA0C0F95EA0C0F91
:1048B00000F06F8081EA030423EA4C134EEAD47EB1
:1048C00021EA4C1141F4801143F48013AE44A1FB62
:1048D000024CA0FB0365AEF17F7E361955EB0C054B
:1048E000A1FB034C4CF10003A0FB021C16EB0C06D1
:1048F000654153F10003094218BF46F0010613F465
:10490000007F0BD14FEA03314FEA0530340341EA0F
:10491000155140EA16506FF003020AE04FEAC32136
:104920004FEAC520F40241EA555140EA56506FF073
:10493000020202EB2E4201EB025585EACE710AD04B
:104940005FEA440C18BF24F0004450F1000041F12C
:10495000000120EAD47040F2FE7C624500D270BDB6
:10496000A84214BF4FF080444FF04044002E08BFCF
:104970000024BEF1806FA8BFA1F1C041BDE8704026
:1049800080F282804FF0000001F1C04101F000414F
:1049900070479EEA0C0F0CEA131518BF95EA0C0F2E
:1049A00006D04FF0000081EA030E0EF0004170BD0A
:1049B00000F01CF88900013E00F007B800F009B8CB
:1049C0004FEA430C5FEA5C5C08D081EA030100F027
:1049D0005BB84FEA410C5FEA5C5CF6D14FF0000037
:1049E000014970470000FF070000F87F0EF1020E3A
:1049F0002EF0030E5EF8046B364205D4012A43EB19
:104A0000030515F5001F12D8012841EB010C1CF518
:104A1000001F0CD80ED14FEAD17C15F5001F0CEB0E
:104A20004C0C0CF1020C08BF4CEBD37C04E04FF0B3
:104A3000080C01E04FEAD37C0CEB4C0526FA05F696
:104A400006F00706B6F1040C06D20EEB860CBDE8A4
:104A500070404CF0010C6047DFE80CF0090B0202DB
:104A60004FF000414FF00000A1F5002170BD194644
:104A70001046012851EB010418BFD4F5001484BF7F
:104A8000002001F0004170BD0808A0F500114FEAB8
:104A90003101704791EA030F10B581F000413FF5F5
:104AA000FBAC83F0004300F0EFB800002DE9F041CB
:104AB00001F5801CBCF5001FC0F2C3804FEA115CF9
:104AC00021EA0C510CF1FD0C41F480115FEA5C0C01
:104AD0000CF5C07C01D3400049413DA4890241EA64
:104AE000905187028E0E0A0CA45D04FB04F602FBB3
:104AF00006F6C6F14046A4FB0662F60D46EA4226DB
:104B000006FB06F4A4FB01235242C3F1404338BF25
:104B10005B1EA6FB02420024E6FB0324D20B42EA02
:104B20004446A6FB0623A1FB02E2A3FB07E4A4186C
:104B30004FF0000252F10002E3FB01426442C2F175
:104B4000404E38BFAEF1010EA6FB04234FF0000229
:104B5000E6FB0E32A2FB03464FF00004B61954F1F7
:104B60000004E2FB0264A1FB06E6A4FB07E816EBE7
:104B700008064FF0000858F10008E4FB016876428F
:104B8000C8F1405838BFA8F10108A2FB06E4A3FB16
:104B900008E52D194FF0000454F10004E2FB08541D
:104BA000A1FB05E6A7FB04E818EB06084FF000069A
:104BB00056F10006E1FB048618F1200556F10006C7
:104BC000A809A8F11B08B10908F03F08B8F10A0FBD
:104BD00040EA86601CD901EB0C51BDE8F08100BFB2
:104BE000FCF5EEE8E2DDD8D3CFCBC7C3C0BDB9B684
:104BF000B4B1AEACA9A7A5A3A19F9D9B9A98969589
:104C00009392908F8D8C8B8988878685848382810F
:104C1000A0FB006800FB01F208EB4208B8EB872814
:104C200007D5341858EB0104D5D5401C51F10001CB
:104C3000D1E7341A78EB0104CDD4401E71F10001A4
:104C4000C9E75FEA4C0C5FEA9C5C0DD105D34FF0DD
:104C5000000001F00041BDE8F081BDE8F04170B511
:104C6000FFF7C4FE6DDBFFBEBDE8F0414FF0000072
:104C7000004970470000F87F10B591EA030F48BF64
:104C800083F000433FF508AC841A71EB030C07D2A4
:104C900012198CF0004C43EB0C03001B61EB0C0170
:104CA000DFF8A4E14FEA1154A4EB135C1EEA430FB2
:104CB00018BF9EEA445F00F0B08023EA6E035242C0
:104CC00021EA0451C3EB6E0338BF5B1EDCF1200EFA
:104CD00025D322FA0CFE10EB0E0043FA0CFE41EB3A
:104CE0000E01CCF1200E03FA0EFE10EB0E0051F176
:104CF0000001CCF1200E29D412FA0EF201EB04517E
:104D0000BDE8104058BF7047401C1CBFB2F1004FB7
:104D1000704700280CBF491C20F00100704712EBBF
:104D2000020E43EB030218BF4FF0010E4EEA42029F
:104D3000ACF1200CDCF11E0E54D943FA0CFE10EB42
:104D40000E0051F1FF31CCF11E0ED5D50EF1010E42
:104D500012FA0EFE404141EB010101EB445C5FEAB7
:104D60005C5C10D910EBDE7001EB045138BFBEF172
:104D7000004FBDE8104018BF704700280CBF491C09
:104D800020F00100704730D24FEAD42C11F5001109
:104D900024F400641BD0B1FA81F20B3AA41AA41EC9
:104DA000D2F12003914030FA03F31943904001EB14
:104DB000CC71002C01EB0451BDE81040A8BF704736
:104DC00001F1C0414FF0000001F000417047B0FA1E
:104DD00080F310FA03F100D110BDE41A173C480526
:104DE000C90AE4E701EB045110BD491001EB04517D
:104DF000BDE810404FEA300002E04FF0000170477C
:104E00004A0008BF0042F8D0B2F5001F28BF704723
:104E100001F000414FF0000070479EEA445F07D068
:104E200011EA5E0FBDE8104004BF0021002070476A
:104E3000BDE8104070B5FFF7D9FD00BF40DFF63E7A
:104E400083F00041104670470000E0FF43004FEA46
:104E5000D30C4FEA3C0C43401FBF40070CF160519C
:104E600013F0FE4F70471CF0006F03D100200CF0D0
:104E7000004170470CF0004343EA507010B540EA1F
:104E8000CC0000F022FA00BF000000924FEA0001BF
:104E9000FFF7FABD4FF000414FF00000A1F50021EF
:104EA0007047000090EA010F48BF81F0004100F117
:104EB0006882421A3CBF801A89184FEAD0524FF0DC
:104EC0007F4C1CEA410FA2EBD15318BF9CEA026F42
:104ED00000F03B804FF0004C4CEA00204CEA0121EE
:104EE00021FA03FC10EB0C0C1ED202F1FF325FEA38
:104EF0001C2040EBC25038BF70471CF07F0F4FEAB8
:104F0000400C18BFBCF17F4F38BF7047C3F120037E
:104F1000994008BF20F00100BCF17F4F38BF7047B7
:104F2000A0F1C04000F017BA4FEA3C00000A40EB85
:104F3000C25028BF1CF0FF0F4FEA400CE6D018BF4C
:104F4000BCF17F4F38BF7047EAE79CEA026F05D09B
:104F500010EA5C0F08BF00F00040704710B500F089
:104F6000B4F900BF64FBBE3E014800F078BA00BF50
:104F70000000C07F4FF47F0C1CEAD0121EBF1CEA59
:104F8000D11392EA0C0F93EA0C0F00F0858090EA9F
:104F9000010F48BF42F4807240F4000C41F400005D
:104FA0002CF07F4120F07F4000B58142A2EB03024C
:104FB0000FF2081CACEB504EC0F100009EF800E070
:104FC0004FEA4E0E00FB0EFC38BF49004FEA2C1C86
:104FD00002F5FA020CFB0EF34FEACE1E4FEA112C3B
:104FE0004FEAC1210EEB635E42EB22420EFB0CFC4A
:104FF0004FEA1C5300FB03114FEA112C4FEA013119
:105000000EFB0CFC4FEADC4C00FB0C11C14228BF2C
:1050100009184CEB03335DF804EB10EB410143EB53
:10502000C250B2F57C0F38BF704729D512F0F00F8F
:105030001CBF00F1C04000F0004070470081828337
:105040008485868788898B8C8D8E8F919293959697
:1050500097999A9C9D9FA0A2A3A5A7A8AAACAEB021
:10506000B2B3B5B7B9BCBEC0C2C5C7C9CCCED1D426
:10507000D7D9DCDFE2E6E9ECF0F3F7FAFE00000056
:105080004FEA400C0CF1807CBCF17E4F28BF70478A
:10509000B0F1C04000F05FB990EA010F0CEAD11303
:1050A00048BF42F48072624538BF634507D213F4AB
:1050B0007F0F16D080EA010000F00040704710B565
:1050C00000F003F9097EFC3E00F005B880EA01001B
:1050D00000F00040704780EA010000F0004000F05E
:1050E0003AB912F47F0F04BF0248704780EA01000A
:1050F00000F031B90000C07F41000B0ED3F19E02D9
:1051000008D950F400034FEA032323FA02F048BF02
:105110004042704710B500F0D8F800BF4992248093
:10512000002070476FF0004282EA200070470000C4
:10513000C10DD1F19E0206DB4FEA002343F000438C
:1051400023FA02F07047004207D54FEA4001B1F15F
:10515000FE4F02D24FF00000704710B500F0B5F8D6
:1051600049922480002070476FEA200070470000B9
:1051700010F0004148BF4042B0FA80F310FA03F249
:10518000C3F19D030BD051EAC35101EB122053062A
:1051900038BF704700F1010008BF20F001007047E0
:1051A000B0FA80F310FA03F2C3F19D030AD0D905D7
:1051B00001EB1220530638BF704700F1010008BF11
:1051C00020F00100704700004FF47F0C1CEAD01261
:1051D0001EBF1CEAD11392EA0C0F93EA0C0F00F0E9
:1051E000478090EA010F48BF42F480724FF0004CB4
:1051F0004CEA00204CEA012102EB0302A0FB011360
:10520000A2F50002002918BF43F001035B0028BF8C
:105210004FEA330342EB22425FEA132C4CEBC250BD
:105220002EBFBCEB436FB2F57C0F70474FEA036CA7
:10523000BCF1004F08BF20F00100B2F57C0F38BF71
:1052400070470BD582F0FF0212F5803FC8BF704750
:1052500000F1C040D8BF00F00040704700F5000CDE
:105260005FEA4C0C48BF7047B0F1C04000F073B823
:1052700090EA010F0CEAD11348BF42F480726245F4
:1052800038BF634504D280EA010000F00040704757
:1052900010B500F01AF800BF8900013E00F007B811
:1052A00000F009B85FEA410C5FEA1C6C08D080EAA4
:1052B000010000F050B85FEA400C5FEA1C6CF6D1C8
:1052C0004FF00040A0F5800070470EF1020E2EF066
:1052D000030E5EF8044B244204D44FEA4102B2F1BB
:1052E0007F4F11D84FEA4003B3F17F4F0CD80ED156
:1052F0004FEAD07CB2F17F4F0CEB4C0C0CF1020C5E
:1053000008BF4CEBD17C04E04FF0080C01E04FEA01
:10531000D17C0CEB4C0324FA03F404F00704B4F141
:10532000040C06D20EEB840CBDE810404CF0010CCE
:105330006047DFE80CF0070802024FF00040A0F5DC
:10534000800010BD0846420018BFD2F1807288BFAD
:1053500000F0004010BDFF2141EAD050C005704769
:1053600080F0004090EA010F7FF5A3AD81F000418D
:1053700000F007B890EA010F48BF81F000413FF507
:1053800098AD421A04D882F00042A0EB020011440A
:105390004FEAD0524FF07F4C1CEA410FA2EBD153A1
:1053A00018BF9CEA026F4AD04FF0004C4CEA002034
:1053B0004CEA012121FA03FCB0EB0C0C0FD412F0E3
:1053C000FE0F36D05FEA4C001DD5001240EBC250F4
:1053D00038BF70471CF03F0F18BF70470BE0A2F1B9
:1053E00001025FEA1C2040EBC25038BF70471CF03E
:1053F0007F0F18BF7047C3F12003994014BF401EB0
:1054000020F00100704780084FEA122308BF704760
:10541000B0FA80FCA2EB0C02CCF1280C60FA0CF084
:1054200093EA122F04BF00EBC25070474FEAC370DB
:105430007047130A5FEADC1008BF7047F6E79CEA82
:10544000026F04D010EA5C0F08BF0020704710B54F
:10545000FFF73BFF40DFF63E81F0004070470CF065
:105460000F03092B08BF082000F07F800A2B0BD008
:10547000082B18BF704708BF1CF0400F0AD04FF030
:1054800000004FF0000170471CF0400F18BF4FF0B4
:10549000004070471CF0100F08D020F0704300F05F
:1054A0007F4242EAD3014FEA4370704700F0604008
:1054B00021F07F4242EA000201F07F4040EA727030
:1054C00070474FF0FF0C4CF4E06C1CEA11531CBF0A
:1054D0009CEA030C9445C2BFDA4201EB02517047CB
:1054E000002B0DD0BCF1000F0FD0002A01F00041BD
:1054F000A4BF41F0E04141F07F614FF000007047F0
:1055000001F000414FF00000704750EA01334FF0C6
:105510009B0C18BF4CF0806C7FF45EA870474FF076
:10552000FF0212EAD0521CBF92F0FF038B42C2BFAF
:10553000D14200EBC1507047002A0AD0002B0BD09B
:10554000002900F00040A4BF40F0FE4040F40000FD
:10555000704700F00040704743024FF00B0C18BF3B
:105560004CF0806C7FF400AD70471CF4801F11D0AC
:105570001CF4E02F03D06FEACC31490070474FF0A4
:105580004050EFF3008222F0704242EA000282F3C0
:10559000008870474FF000007047010202030405C5
:1055A000060708090A0B0C0D0E0F10100000000072
:1055B00000000000010203040607080900000000C3
:1055C0000000000000000000000000003F4000005C
:1055D00000000000000030004000300040000000EB
:1055E00009000BC03D000BC03D00090018C024405D
:1055F0007FE0224031800000180024C01B000D8095
:105600003240018003801C4027401C80074000403E
:10561000100060000000000000000000000000001A
:1056200000001F80204040200000402020401F80BC
:1056300000000000090006001F80060009000000AD
:10564000040004003F80040004000000001000601B
:10565000000000000000000004000400040004003A
:1056600004000000000000400000000000000000F6
:10567000002001C006003800400000001F802040CC
:10568000204020401F800000000010403FC000402C
:105690000000000018C021402240244018400000B3
:1056A00010802040244024401B80000002000D0098
:1056B00011003FC0014000003C80244024402440B1
:1056C000238000001F8024402440344003800000D9
:1056D0003000200027C03800200000001B8024403C
:1056E000244024401B8000001C0022C02240224095
:1056F0001F800000000000000840000000000000C3
:105700000000000004600000000000000000040031
:105710000A0011002080404009000900090009002A
:105720000900000000004040208011000A00040031
:105730001800200023402400180000001F80204093
:10574000274029401F400000004007C039000F00DB
:1057500001C0004020403FC0244024401B80000086
:105760001F802040204020403080000020403FC06B
:10577000204020401F80000020403FC024402E4099
:1057800030C0000020403FC024402E003000000008
:105790000F001080204022403380020020403FC094
:1057A000040004003FC02040204020403FC0204073
:1057B000204000000060202020203FC0200020006A
:1057C00020403FC024400B0030C0204020403FC05C
:1057D00020400040004000C03FC03C0003C03C00EF
:1057E0003FC0000020403FC00C4023003FC02000CD
:1057F0001F802040204020401F80000020403FC0EC
:1058000024402400180000001F802140214020E097
:105810001FA0000020403FC02440260019C00040C7
:1058200018C0244024402240318000003000204035
:105830003FC020403000000020003F80004000407A
:105840003F80200020003E0001C0070038002000FB
:10585000380007C03C0007C038000000204039C0B5
:10586000060039C0204000002000384007C0384002
:1058700020000000304021C02640384020C00000F9
:10588000000000007FE04020402000000000700089
:105890000C000380004000000000402040207FE01A
:1058A0000000000000002000400020000000000078
:1058B0000010001000100010001000100000000088
:1058C000400000000000000000000280054005408C
:1058D00003C0004020003FC004400440038000009B
:1058E00000000380044004400640000000000380E4
:1058F000044024403FC000400000038005400540B4
:1059000003400000000004401FC024402440200049
:10591000000002E0055005500650042020403FC022
:105920000440040003C000400000044027C00040C1
:105930000000000000100010041027E0000000002C
:1059400020403FC00140070004C0044020402040E8
:105950003FC000400040000007C0040007C0040032
:1059600003C00000044007C00440040003C000401E
:10597000000003800440044003800000041007F08E
:1059800004500440038000000000038004400450E1
:1059900007F00010044007C00240040004000000AB
:1059A000000006400540054004C00000000004005F
:1059B0001F800440004000000400078000400440B5
:1059C00007C000400400070004C001800600040076
:1059D000060001C0070001C006000000044006C028
:1059E000010006C0044000000410071004E001801C
:1059F000060004000000044005C00640044000000A
:105A00000000000004007BE04020000000000000D7
:105A10000000FFF000000000000040207BE00400D8
:105A200000000000400080004000200020004000F6
:105A30000000000000000000000000000000000066
:105A40000000000000001FCC000C0000000000005F
:105A50000000080030006000080030006000000016
:105A6000022003FC1E20022003FC1E200220000056
:105A700000000E1811043FFF10840C780000000095
:105A80000F0010840F3800C00778188400780000D9
:105A900000780F8410C411240E9800E400840008DC
:105AA0000800680070000000000000000000000016
:105AB00000000000000007E0181820044002000069
:105AC000000040022004181807E000000000000059
:105AD0000240024001800FF00180024002400000BD
